{
  "_format": "hh-sol-artifact-1",
  "contractName": "Rentable",
  "sourceName": "contracts/Rentable.sol",
  "abi": [
    {
      "inputs": [
        {
          "internalType": "address",
          "name": "_USDC",
          "type": "address"
        },
        {
          "internalType": "uint256",
          "name": "_feeValue",
          "type": "uint256"
        }
      ],
      "stateMutability": "nonpayable",
      "type": "constructor"
    },
    {
      "anonymous": false,
      "inputs": [
        {
          "indexed": true,
          "internalType": "address",
          "name": "owner",
          "type": "address"
        },
        {
          "indexed": true,
          "internalType": "address",
          "name": "approved",
          "type": "address"
        },
        {
          "indexed": true,
          "internalType": "uint256",
          "name": "tokenId",
          "type": "uint256"
        }
      ],
      "name": "Approval",
      "type": "event"
    },
    {
      "anonymous": false,
      "inputs": [
        {
          "indexed": true,
          "internalType": "address",
          "name": "owner",
          "type": "address"
        },
        {
          "indexed": true,
          "internalType": "address",
          "name": "operator",
          "type": "address"
        },
        {
          "indexed": false,
          "internalType": "bool",
          "name": "approved",
          "type": "bool"
        }
      ],
      "name": "ApprovalForAll",
      "type": "event"
    },
    {
      "anonymous": false,
      "inputs": [
        {
          "indexed": true,
          "internalType": "address",
          "name": "sender",
          "type": "address"
        },
        {
          "indexed": false,
          "internalType": "address",
          "name": "tokenAddress",
          "type": "address"
        },
        {
          "indexed": false,
          "internalType": "uint256",
          "name": "tokenId",
          "type": "uint256"
        },
        {
          "indexed": false,
          "internalType": "uint256",
          "name": "deposit",
          "type": "uint256"
        },
        {
          "indexed": false,
          "internalType": "uint256",
          "name": "fee",
          "type": "uint256"
        },
        {
          "indexed": false,
          "internalType": "uint256",
          "name": "duration",
          "type": "uint256"
        },
        {
          "indexed": false,
          "internalType": "uint256",
          "name": "unitId",
          "type": "uint256"
        }
      ],
      "name": "CreateRentalUnit",
      "type": "event"
    },
    {
      "anonymous": false,
      "inputs": [
        {
          "indexed": true,
          "internalType": "address",
          "name": "sender",
          "type": "address"
        },
        {
          "indexed": false,
          "internalType": "address",
          "name": "holder",
          "type": "address"
        },
        {
          "indexed": false,
          "internalType": "uint256",
          "name": "rentalId",
          "type": "uint256"
        }
      ],
      "name": "LiquidateNFT",
      "type": "event"
    },
    {
      "anonymous": false,
      "inputs": [
        {
          "indexed": true,
          "internalType": "address",
          "name": "sender",
          "type": "address"
        },
        {
          "indexed": false,
          "internalType": "uint256",
          "name": "rentalId",
          "type": "uint256"
        }
      ],
      "name": "RentNFT",
      "type": "event"
    },
    {
      "anonymous": false,
      "inputs": [
        {
          "indexed": true,
          "internalType": "address",
          "name": "sender",
          "type": "address"
        },
        {
          "indexed": false,
          "internalType": "uint256",
          "name": "rentalId",
          "type": "uint256"
        }
      ],
      "name": "ReturnNFT",
      "type": "event"
    },
    {
      "anonymous": false,
      "inputs": [
        {
          "indexed": true,
          "internalType": "address",
          "name": "from",
          "type": "address"
        },
        {
          "indexed": true,
          "internalType": "address",
          "name": "to",
          "type": "address"
        },
        {
          "indexed": true,
          "internalType": "uint256",
          "name": "tokenId",
          "type": "uint256"
        }
      ],
      "name": "Transfer",
      "type": "event"
    },
    {
      "inputs": [
        {
          "internalType": "address",
          "name": "to",
          "type": "address"
        },
        {
          "internalType": "uint256",
          "name": "tokenId",
          "type": "uint256"
        }
      ],
      "name": "approve",
      "outputs": [],
      "stateMutability": "nonpayable",
      "type": "function"
    },
    {
      "inputs": [
        {
          "internalType": "address",
          "name": "owner",
          "type": "address"
        }
      ],
      "name": "balanceOf",
      "outputs": [
        {
          "internalType": "uint256",
          "name": "",
          "type": "uint256"
        }
      ],
      "stateMutability": "view",
      "type": "function"
    },
    {
      "inputs": [
        {
          "internalType": "address",
          "name": "_tokenAddr",
          "type": "address"
        },
        {
          "internalType": "uint256",
          "name": "_tokenId",
          "type": "uint256"
        },
        {
          "internalType": "uint256",
          "name": "_deposit",
          "type": "uint256"
        },
        {
          "internalType": "uint256",
          "name": "_fee",
          "type": "uint256"
        },
        {
          "internalType": "uint256",
          "name": "_duration",
          "type": "uint256"
        }
      ],
      "name": "createRentalUnit",
      "outputs": [],
      "stateMutability": "nonpayable",
      "type": "function"
    },
    {
      "inputs": [
        {
          "internalType": "uint256",
          "name": "tokenId",
          "type": "uint256"
        }
      ],
      "name": "getApproved",
      "outputs": [
        {
          "internalType": "address",
          "name": "",
          "type": "address"
        }
      ],
      "stateMutability": "view",
      "type": "function"
    },
    {
      "inputs": [
        {
          "internalType": "uint256",
          "name": "unitId",
          "type": "uint256"
        }
      ],
      "name": "getRentalUnit",
      "outputs": [
        {
          "components": [
            {
              "internalType": "address",
              "name": "tokenAddr",
              "type": "address"
            },
            {
              "internalType": "uint256",
              "name": "tokenId",
              "type": "uint256"
            },
            {
              "internalType": "uint256",
              "name": "deposit",
              "type": "uint256"
            },
            {
              "internalType": "uint256",
              "name": "fee",
              "type": "uint256"
            },
            {
              "internalType": "uint256",
              "name": "duration",
              "type": "uint256"
            },
            {
              "internalType": "uint256",
              "name": "expiry",
              "type": "uint256"
            },
            {
              "internalType": "address",
              "name": "renter",
              "type": "address"
            },
            {
              "internalType": "bool",
              "name": "rented",
              "type": "bool"
            },
            {
              "internalType": "bool",
              "name": "complete",
              "type": "bool"
            }
          ],
          "internalType": "struct IRentable.RentalUnit",
          "name": "_unit",
          "type": "tuple"
        }
      ],
      "stateMutability": "view",
      "type": "function"
    },
    {
      "inputs": [
        {
          "internalType": "uint256",
          "name": "_from",
          "type": "uint256"
        },
        {
          "internalType": "uint256",
          "name": "_to",
          "type": "uint256"
        }
      ],
      "name": "getRentalUnitList",
      "outputs": [
        {
          "components": [
            {
              "internalType": "address",
              "name": "tokenAddr",
              "type": "address"
            },
            {
              "internalType": "uint256",
              "name": "tokenId",
              "type": "uint256"
            },
            {
              "internalType": "uint256",
              "name": "deposit",
              "type": "uint256"
            },
            {
              "internalType": "uint256",
              "name": "fee",
              "type": "uint256"
            },
            {
              "internalType": "uint256",
              "name": "duration",
              "type": "uint256"
            },
            {
              "internalType": "uint256",
              "name": "expiry",
              "type": "uint256"
            },
            {
              "internalType": "address",
              "name": "renter",
              "type": "address"
            },
            {
              "internalType": "bool",
              "name": "rented",
              "type": "bool"
            },
            {
              "internalType": "bool",
              "name": "complete",
              "type": "bool"
            }
          ],
          "internalType": "struct IRentable.RentalUnit[]",
          "name": "",
          "type": "tuple[]"
        }
      ],
      "stateMutability": "view",
      "type": "function"
    },
    {
      "inputs": [
        {
          "internalType": "address",
          "name": "owner",
          "type": "address"
        },
        {
          "internalType": "address",
          "name": "operator",
          "type": "address"
        }
      ],
      "name": "isApprovedForAll",
      "outputs": [
        {
          "internalType": "bool",
          "name": "",
          "type": "bool"
        }
      ],
      "stateMutability": "view",
      "type": "function"
    },
    {
      "inputs": [
        {
          "internalType": "uint256",
          "name": "_unitId",
          "type": "uint256"
        }
      ],
      "name": "liquidateNFT",
      "outputs": [],
      "stateMutability": "nonpayable",
      "type": "function"
    },
    {
      "inputs": [],
      "name": "liquidateNFTLoop",
      "outputs": [],
      "stateMutability": "nonpayable",
      "type": "function"
    },
    {
      "inputs": [],
      "name": "name",
      "outputs": [
        {
          "internalType": "string",
          "name": "",
          "type": "string"
        }
      ],
      "stateMutability": "view",
      "type": "function"
    },
    {
      "inputs": [
        {
          "internalType": "uint256",
          "name": "tokenId",
          "type": "uint256"
        }
      ],
      "name": "ownerOf",
      "outputs": [
        {
          "internalType": "address",
          "name": "",
          "type": "address"
        }
      ],
      "stateMutability": "view",
      "type": "function"
    },
    {
      "inputs": [
        {
          "internalType": "uint256",
          "name": "_unitId",
          "type": "uint256"
        }
      ],
      "name": "rentNFT",
      "outputs": [],
      "stateMutability": "nonpayable",
      "type": "function"
    },
    {
      "inputs": [
        {
          "internalType": "uint256",
          "name": "_unitId",
          "type": "uint256"
        }
      ],
      "name": "returnNFT",
      "outputs": [],
      "stateMutability": "nonpayable",
      "type": "function"
    },
    {
      "inputs": [
        {
          "internalType": "address",
          "name": "from",
          "type": "address"
        },
        {
          "internalType": "address",
          "name": "to",
          "type": "address"
        },
        {
          "internalType": "uint256",
          "name": "tokenId",
          "type": "uint256"
        }
      ],
      "name": "safeTransferFrom",
      "outputs": [],
      "stateMutability": "nonpayable",
      "type": "function"
    },
    {
      "inputs": [
        {
          "internalType": "address",
          "name": "from",
          "type": "address"
        },
        {
          "internalType": "address",
          "name": "to",
          "type": "address"
        },
        {
          "internalType": "uint256",
          "name": "tokenId",
          "type": "uint256"
        },
        {
          "internalType": "bytes",
          "name": "data",
          "type": "bytes"
        }
      ],
      "name": "safeTransferFrom",
      "outputs": [],
      "stateMutability": "nonpayable",
      "type": "function"
    },
    {
      "inputs": [
        {
          "internalType": "address",
          "name": "operator",
          "type": "address"
        },
        {
          "internalType": "bool",
          "name": "approved",
          "type": "bool"
        }
      ],
      "name": "setApprovalForAll",
      "outputs": [],
      "stateMutability": "nonpayable",
      "type": "function"
    },
    {
      "inputs": [
        {
          "internalType": "bytes4",
          "name": "interfaceId",
          "type": "bytes4"
        }
      ],
      "name": "supportsInterface",
      "outputs": [
        {
          "internalType": "bool",
          "name": "",
          "type": "bool"
        }
      ],
      "stateMutability": "view",
      "type": "function"
    },
    {
      "inputs": [],
      "name": "symbol",
      "outputs": [
        {
          "internalType": "string",
          "name": "",
          "type": "string"
        }
      ],
      "stateMutability": "view",
      "type": "function"
    },
    {
      "inputs": [
        {
          "internalType": "uint256",
          "name": "index",
          "type": "uint256"
        }
      ],
      "name": "tokenByIndex",
      "outputs": [
        {
          "internalType": "uint256",
          "name": "",
          "type": "uint256"
        }
      ],
      "stateMutability": "view",
      "type": "function"
    },
    {
      "inputs": [
        {
          "internalType": "address",
          "name": "owner",
          "type": "address"
        },
        {
          "internalType": "uint256",
          "name": "index",
          "type": "uint256"
        }
      ],
      "name": "tokenOfOwnerByIndex",
      "outputs": [
        {
          "internalType": "uint256",
          "name": "",
          "type": "uint256"
        }
      ],
      "stateMutability": "view",
      "type": "function"
    },
    {
      "inputs": [
        {
          "internalType": "uint256",
          "name": "tokenId",
          "type": "uint256"
        }
      ],
      "name": "tokenURI",
      "outputs": [
        {
          "internalType": "string",
          "name": "",
          "type": "string"
        }
      ],
      "stateMutability": "view",
      "type": "function"
    },
    {
      "inputs": [],
      "name": "totalSupply",
      "outputs": [
        {
          "internalType": "uint256",
          "name": "",
          "type": "uint256"
        }
      ],
      "stateMutability": "view",
      "type": "function"
    },
    {
      "inputs": [
        {
          "internalType": "address",
          "name": "from",
          "type": "address"
        },
        {
          "internalType": "address",
          "name": "to",
          "type": "address"
        },
        {
          "internalType": "uint256",
          "name": "tokenId",
          "type": "uint256"
        }
      ],
      "name": "transferFrom",
      "outputs": [],
      "stateMutability": "nonpayable",
      "type": "function"
    }
  ],
  "bytecode": "0x60806040523480156200001157600080fd5b50604051620054653803806200546583398181016040528101906200003791906200027c565b6040518060400160405280600881526020017f52656e7461626c650000000000000000000000000000000000000000000000008152506040518060400160405280600481526020017f52454e54000000000000000000000000000000000000000000000000000000008152508160009080519060200190620000bb92919062000127565b508060019080519060200190620000d492919062000127565b50505081600c60006101000a81548173ffffffffffffffffffffffffffffffffffffffff021916908373ffffffffffffffffffffffffffffffffffffffff16021790555080600a81905550505062000328565b8280546200013590620002f2565b90600052602060002090601f016020900481019282620001595760008555620001a5565b82601f106200017457805160ff1916838001178555620001a5565b82800160010185558215620001a5579182015b82811115620001a457825182559160200191906001019062000187565b5b509050620001b49190620001b8565b5090565b5b80821115620001d3576000816000905550600101620001b9565b5090565b600080fd5b600073ffffffffffffffffffffffffffffffffffffffff82169050919050565b60006200020982620001dc565b9050919050565b6200021b81620001fc565b81146200022757600080fd5b50565b6000815190506200023b8162000210565b92915050565b6000819050919050565b620002568162000241565b81146200026257600080fd5b50565b60008151905062000276816200024b565b92915050565b60008060408385031215620002965762000295620001d7565b5b6000620002a6858286016200022a565b9250506020620002b98582860162000265565b9150509250929050565b7f4e487b7100000000000000000000000000000000000000000000000000000000600052602260045260246000fd5b600060028204905060018216806200030b57607f821691505b60208210811415620003225762000321620002c3565b5b50919050565b61512d80620003386000396000f3fe608060405234801561001057600080fd5b506004361061014d5760003560e01c806370a08231116100c3578063e985e9c51161007c578063e985e9c5146103c0578063eba16733146103f0578063ec7b85161461040c578063f8a211a51461043c578063f95dc23214610446578063fc0ac4be146104625761014d565b806370a08231146102ee57806395d89b411461031e578063a22cb4651461033c578063b0cd2aa014610358578063b88d4fde14610374578063c87b56dd146103905761014d565b806318160ddd1161011557806318160ddd1461020857806323b872dd146102265780632f745c591461024257806342842e0e146102725780634f6ccce71461028e5780636352211e146102be5761014d565b806301ffc9a71461015257806306fdde0314610182578063081812fc146101a0578063095ea7b3146101d057806314364f1d146101ec575b600080fd5b61016c600480360381019061016791906136b8565b610492565b6040516101799190613700565b60405180910390f35b61018a61050c565b60405161019791906137b4565b60405180910390f35b6101ba60048036038101906101b5919061380c565b61059e565b6040516101c7919061387a565b60405180910390f35b6101ea60048036038101906101e591906138c1565b6105e4565b005b6102066004803603810190610201919061380c565b6106fc565b005b610210610bc7565b60405161021d9190613910565b60405180910390f35b610240600480360381019061023b919061392b565b610bd4565b005b61025c600480360381019061025791906138c1565b610c34565b6040516102699190613910565b60405180910390f35b61028c6004803603810190610287919061392b565b610cd9565b005b6102a860048036038101906102a3919061380c565b610cf9565b6040516102b59190613910565b60405180910390f35b6102d860048036038101906102d3919061380c565b610d6a565b6040516102e5919061387a565b60405180910390f35b6103086004803603810190610303919061397e565b610e1c565b6040516103159190613910565b60405180910390f35b610326610ed4565b60405161033391906137b4565b60405180910390f35b610356600480360381019061035191906139d7565b610f66565b005b610372600480360381019061036d919061380c565b610f7c565b005b61038e60048036038101906103899190613b4c565b6113e4565b005b6103aa60048036038101906103a5919061380c565b611446565b6040516103b791906137b4565b60405180910390f35b6103da60048036038101906103d59190613bcf565b6114ae565b6040516103e79190613700565b60405180910390f35b61040a60048036038101906104059190613c0f565b611542565b005b61042660048036038101906104219190613c8a565b611934565b6040516104339190613e5e565b60405180910390f35b610444611c08565b005b610460600480360381019061045b919061380c565b611eb2565b005b61047c6004803603810190610477919061380c565b612260565b6040516104899190613f37565b60405180910390f35b60007f780e9d63000000000000000000000000000000000000000000000000000000007bffffffffffffffffffffffffffffffffffffffffffffffffffffffff1916827bffffffffffffffffffffffffffffffffffffffffffffffffffffffff191614806105055750610504826123a2565b5b9050919050565b60606000805461051b90613f82565b80601f016020809104026020016040519081016040528092919081815260200182805461054790613f82565b80156105945780601f1061056957610100808354040283529160200191610594565b820191906000526020600020905b81548152906001019060200180831161057757829003601f168201915b5050505050905090565b60006105a982612484565b6004600083815260200190815260200160002060009054906101000a900473ffffffffffffffffffffffffffffffffffffffff169050919050565b60006105ef82610d6a565b90508073ffffffffffffffffffffffffffffffffffffffff168373ffffffffffffffffffffffffffffffffffffffff161415610660576040517f08c379a000000000000000000000000000000000000000000000000000000000815260040161065790614026565b60405180910390fd5b8073ffffffffffffffffffffffffffffffffffffffff1661067f6124cf565b73ffffffffffffffffffffffffffffffffffffffff1614806106ae57506106ad816106a86124cf565b6114ae565b5b6106ed576040517f08c379a00000000000000000000000000000000000000000000000000000000081526004016106e4906140b8565b60405180910390fd5b6106f783836124d7565b505050565b61070581612590565b610744576040517f08c379a000000000000000000000000000000000000000000000000000000000815260040161073b90614124565b60405180910390fd5b61074d81610d6a565b73ffffffffffffffffffffffffffffffffffffffff163373ffffffffffffffffffffffffffffffffffffffff1614156107bb576040517f08c379a00000000000000000000000000000000000000000000000000000000081526004016107b290614190565b60405180910390fd5b60006107fc6103e86107ee600a54600d6000878152602001908152602001600020600301546125fc90919063ffffffff16565b61261290919063ffffffff16565b9050600061085182610843600d600087815260200190815260200160002060020154600d60008881526020019081526020016000206003015461262890919063ffffffff16565b61262890919063ffffffff16565b905080600c60009054906101000a900473ffffffffffffffffffffffffffffffffffffffff1673ffffffffffffffffffffffffffffffffffffffff166370a08231336040518263ffffffff1660e01b81526004016108af919061387a565b60206040518083038186803b1580156108c757600080fd5b505afa1580156108db573d6000803e3d6000fd5b505050506040513d601f19601f820116820180604052508101906108ff91906141c5565b1015610940576040517f08c379a00000000000000000000000000000000000000000000000000000000081526004016109379061423e565b60405180910390fd5b600c60009054906101000a900473ffffffffffffffffffffffffffffffffffffffff1673ffffffffffffffffffffffffffffffffffffffff166323b872dd3330846040518463ffffffff1660e01b815260040161099f9392919061425e565b602060405180830381600087803b1580156109b957600080fd5b505af11580156109cd573d6000803e3d6000fd5b505050506040513d601f19601f820116820180604052508101906109f191906142aa565b50600d600084815260200190815260200160002060000160009054906101000a900473ffffffffffffffffffffffffffffffffffffffff1673ffffffffffffffffffffffffffffffffffffffff166323b872dd3033600d6000888152602001908152602001600020600101546040518463ffffffff1660e01b8152600401610a7b9392919061425e565b600060405180830381600087803b158015610a9557600080fd5b505af1158015610aa9573d6000803e3d6000fd5b50505050610ad642600d60008681526020019081526020016000206004015461262890919063ffffffff16565b600d60008581526020019081526020016000206005018190555033600d600085815260200190815260200160002060060160006101000a81548173ffffffffffffffffffffffffffffffffffffffff021916908373ffffffffffffffffffffffffffffffffffffffff1602179055506001600d600085815260200190815260200160002060060160146101000a81548160ff0219169083151502179055503373ffffffffffffffffffffffffffffffffffffffff167f728038d1ce2b70e3a7c0aad5d1d3bea092357a8b99a13f81b77390fe07db234284604051610bba9190613910565b60405180910390a2505050565b6000600880549050905090565b610be5610bdf6124cf565b8261263e565b610c24576040517f08c379a0000000000000000000000000000000000000000000000000000000008152600401610c1b90614349565b60405180910390fd5b610c2f8383836126d3565b505050565b6000610c3f83610e1c565b8210610c80576040517f08c379a0000000000000000000000000000000000000000000000000000000008152600401610c77906143db565b60405180910390fd5b600660008473ffffffffffffffffffffffffffffffffffffffff1673ffffffffffffffffffffffffffffffffffffffff168152602001908152602001600020600083815260200190815260200160002054905092915050565b610cf4838383604051806020016040528060008152506113e4565b505050565b6000610d03610bc7565b8210610d44576040517f08c379a0000000000000000000000000000000000000000000000000000000008152600401610d3b9061446d565b60405180910390fd5b60088281548110610d5857610d5761448d565b5b90600052602060002001549050919050565b6000806002600084815260200190815260200160002060009054906101000a900473ffffffffffffffffffffffffffffffffffffffff169050600073ffffffffffffffffffffffffffffffffffffffff168173ffffffffffffffffffffffffffffffffffffffff161415610e13576040517f08c379a0000000000000000000000000000000000000000000000000000000008152600401610e0a90614508565b60405180910390fd5b80915050919050565b60008073ffffffffffffffffffffffffffffffffffffffff168273ffffffffffffffffffffffffffffffffffffffff161415610e8d576040517f08c379a0000000000000000000000000000000000000000000000000000000008152600401610e849061459a565b60405180910390fd5b600360008373ffffffffffffffffffffffffffffffffffffffff1673ffffffffffffffffffffffffffffffffffffffff168152602001908152602001600020549050919050565b606060018054610ee390613f82565b80601f0160208091040260200160405190810160405280929190818152602001828054610f0f90613f82565b8015610f5c5780601f10610f3157610100808354040283529160200191610f5c565b820191906000526020600020905b815481529060010190602001808311610f3f57829003601f168201915b5050505050905090565b610f78610f716124cf565b838361293a565b5050565b610f8581612590565b610fc4576040517f08c379a0000000000000000000000000000000000000000000000000000000008152600401610fbb90614124565b60405180910390fd5b6000610fcf82610d6a565b90503373ffffffffffffffffffffffffffffffffffffffff16600d600084815260200190815260200160002060000160009054906101000a900473ffffffffffffffffffffffffffffffffffffffff1673ffffffffffffffffffffffffffffffffffffffff16636352211e600d6000868152602001908152602001600020600101546040518263ffffffff1660e01b815260040161106d9190613910565b60206040518083038186803b15801561108557600080fd5b505afa158015611099573d6000803e3d6000fd5b505050506040513d601f19601f820116820180604052508101906110bd91906145cf565b73ffffffffffffffffffffffffffffffffffffffff1614611113576040517f08c379a000000000000000000000000000000000000000000000000000000000815260040161110a90614648565b60405180910390fd5b600c60009054906101000a900473ffffffffffffffffffffffffffffffffffffffff1673ffffffffffffffffffffffffffffffffffffffff1663a9059cbb33600d6000868152602001908152602001600020600201546040518363ffffffff1660e01b8152600401611186929190614668565b602060405180830381600087803b1580156111a057600080fd5b505af11580156111b4573d6000803e3d6000fd5b505050506040513d601f19601f820116820180604052508101906111d891906142aa565b50600c60009054906101000a900473ffffffffffffffffffffffffffffffffffffffff1673ffffffffffffffffffffffffffffffffffffffff1663a9059cbb82600d6000868152602001908152602001600020600301546040518363ffffffff1660e01b815260040161124c929190614668565b602060405180830381600087803b15801561126657600080fd5b505af115801561127a573d6000803e3d6000fd5b505050506040513d601f19601f8201168201806040525081019061129e91906142aa565b50600d600083815260200190815260200160002060000160009054906101000a900473ffffffffffffffffffffffffffffffffffffffff1673ffffffffffffffffffffffffffffffffffffffff166323b872dd3383600d6000878152602001908152602001600020600101546040518463ffffffff1660e01b81526004016113289392919061425e565b600060405180830381600087803b15801561134257600080fd5b505af1158015611356573d6000803e3d6000fd5b505050506001600d600084815260200190815260200160002060060160156101000a81548160ff02191690831515021790555061139282612aa7565b3373ffffffffffffffffffffffffffffffffffffffff167fd6e67546cc933648cd58d18fcc7ed5a42f5a30575a19a5f5efa587f2cb695cb0836040516113d89190613910565b60405180910390a25050565b6113f56113ef6124cf565b8361263e565b611434576040517f08c379a000000000000000000000000000000000000000000000000000000000815260040161142b90614349565b60405180910390fd5b61144084848484612bc4565b50505050565b606061145182612484565b600061145b612c20565b9050600081511161147b57604051806020016040528060008152506114a6565b8061148584612c37565b6040516020016114969291906146cd565b6040516020818303038152906040525b915050919050565b6000600560008473ffffffffffffffffffffffffffffffffffffffff1673ffffffffffffffffffffffffffffffffffffffff16815260200190815260200160002060008373ffffffffffffffffffffffffffffffffffffffff1673ffffffffffffffffffffffffffffffffffffffff16815260200190815260200160002060009054906101000a900460ff16905092915050565b600073ffffffffffffffffffffffffffffffffffffffff168573ffffffffffffffffffffffffffffffffffffffff1614156115b2576040517f08c379a00000000000000000000000000000000000000000000000000000000081526004016115a990614763565b60405180910390fd5b600082116115f5576040517f08c379a00000000000000000000000000000000000000000000000000000000081526004016115ec906147cf565b60405180910390fd5b60008311611638576040517f08c379a000000000000000000000000000000000000000000000000000000000815260040161162f9061483b565b60405180910390fd5b6000811161167b576040517f08c379a0000000000000000000000000000000000000000000000000000000008152600401611672906148a7565b60405180910390fd5b3373ffffffffffffffffffffffffffffffffffffffff168573ffffffffffffffffffffffffffffffffffffffff16636352211e866040518263ffffffff1660e01b81526004016116cb9190613910565b60206040518083038186803b1580156116e357600080fd5b505afa1580156116f7573d6000803e3d6000fd5b505050506040513d601f19601f8201168201806040525081019061171b91906145cf565b73ffffffffffffffffffffffffffffffffffffffff1614611771576040517f08c379a000000000000000000000000000000000000000000000000000000000815260040161176890614913565b60405180910390fd5b8473ffffffffffffffffffffffffffffffffffffffff166323b872dd3330876040518463ffffffff1660e01b81526004016117ae9392919061425e565b600060405180830381600087803b1580156117c857600080fd5b505af11580156117dc573d6000803e3d6000fd5b5050505084600d6000600b54815260200190815260200160002060000160006101000a81548173ffffffffffffffffffffffffffffffffffffffff021916908373ffffffffffffffffffffffffffffffffffffffff16021790555083600d6000600b5481526020019081526020016000206001018190555082600d6000600b5481526020019081526020016000206002018190555081600d6000600b5481526020019081526020016000206003018190555080600d6000600b548152602001908152602001600020600401819055506118b733600b54612d98565b3373ffffffffffffffffffffffffffffffffffffffff167fda0270fba35afb36f919712ed73b491d58dc1a6e13de4f0c4975f4e6320c363d8686868686600b5460405161190996959493929190614933565b60405180910390a26119276001600b5461262890919063ffffffff16565b600b819055505050505050565b606060008311801561194557508183105b611984576040517f08c379a000000000000000000000000000000000000000000000000000000000815260040161197b906149e0565b60405180910390fd5b600b5482106119c8576040517f08c379a00000000000000000000000000000000000000000000000000000000081526004016119bf906149e0565b60405180910390fd5b60006119dd8484612f7290919063ffffffff16565b90506064811115611a23576040517f08c379a0000000000000000000000000000000000000000000000000000000008152600401611a1a906149e0565b60405180910390fd5b60008167ffffffffffffffff811115611a3f57611a3e613a21565b5b604051908082528060200260200182016040528015611a7857816020015b611a656135d0565b815260200190600190039081611a5d5790505b5090506000808690505b858111611bfb57600d6000828152602001908152602001600020604051806101200160405290816000820160009054906101000a900473ffffffffffffffffffffffffffffffffffffffff1673ffffffffffffffffffffffffffffffffffffffff1673ffffffffffffffffffffffffffffffffffffffff16815260200160018201548152602001600282015481526020016003820154815260200160048201548152602001600582015481526020016006820160009054906101000a900473ffffffffffffffffffffffffffffffffffffffff1673ffffffffffffffffffffffffffffffffffffffff1673ffffffffffffffffffffffffffffffffffffffff1681526020016006820160149054906101000a900460ff161515151581526020016006820160159054906101000a900460ff161515151581525050838381518110611bcf57611bce61448d565b5b60200260200101819052508180611be590614a2f565b9250508080611bf390614a2f565b915050611a82565b5081935050505092915050565b60005b600b54811015611eaf57611c1e81612590565b611c2757611e9c565b600d600082815260200190815260200160002060060160159054906101000a900460ff16158015611c785750600d600082815260200190815260200160002060060160149054906101000a900460ff165b8015611c99575042600d600083815260200190815260200160002060050154105b15611e9b576000611ca982610d6a565b90506000611cd76002600d60008681526020019081526020016000206003015461261290919063ffffffff16565b90506000611d2c82611d1e600d600088815260200190815260200160002060030154600d60008981526020019081526020016000206002015461262890919063ffffffff16565b612f7290919063ffffffff16565b9050611d3784612aa7565b600c60009054906101000a900473ffffffffffffffffffffffffffffffffffffffff1673ffffffffffffffffffffffffffffffffffffffff1663a9059cbb84836040518363ffffffff1660e01b8152600401611d94929190614668565b602060405180830381600087803b158015611dae57600080fd5b505af1158015611dc2573d6000803e3d6000fd5b505050506040513d601f19601f82011682018060405250810190611de691906142aa565b50600c60009054906101000a900473ffffffffffffffffffffffffffffffffffffffff1673ffffffffffffffffffffffffffffffffffffffff1663a9059cbb33846040518363ffffffff1660e01b8152600401611e44929190614668565b602060405180830381600087803b158015611e5e57600080fd5b505af1158015611e72573d6000803e3d6000fd5b505050506040513d601f19601f82011682018060405250810190611e9691906142aa565b505050505b5b8080611ea790614a2f565b915050611c0b565b50565b611ebb81612590565b611efa576040517f08c379a0000000000000000000000000000000000000000000000000000000008152600401611ef190614124565b60405180910390fd5b600d600082815260200190815260200160002060060160149054906101000a900460ff168015611f4b5750600d600082815260200190815260200160002060060160159054906101000a900460ff16155b611f8a576040517f08c379a0000000000000000000000000000000000000000000000000000000008152600401611f8190614aea565b60405180910390fd5b42600d60008381526020019081526020016000206005015410611fe2576040517f08c379a0000000000000000000000000000000000000000000000000000000008152600401611fd990614b56565b60405180910390fd5b6000611fed82610d6a565b9050600061201b6002600d60008681526020019081526020016000206003015461261290919063ffffffff16565b9050600061207082612062600d600088815260200190815260200160002060030154600d60008981526020019081526020016000206002015461262890919063ffffffff16565b612f7290919063ffffffff16565b9050600c60009054906101000a900473ffffffffffffffffffffffffffffffffffffffff1673ffffffffffffffffffffffffffffffffffffffff1663a9059cbb84836040518363ffffffff1660e01b81526004016120cf929190614668565b602060405180830381600087803b1580156120e957600080fd5b505af11580156120fd573d6000803e3d6000fd5b505050506040513d601f19601f8201168201806040525081019061212191906142aa565b50600c60009054906101000a900473ffffffffffffffffffffffffffffffffffffffff1673ffffffffffffffffffffffffffffffffffffffff1663a9059cbb33846040518363ffffffff1660e01b815260040161217f929190614668565b602060405180830381600087803b15801561219957600080fd5b505af11580156121ad573d6000803e3d6000fd5b505050506040513d601f19601f820116820180604052508101906121d191906142aa565b506001600d600086815260200190815260200160002060060160156101000a81548160ff02191690831515021790555061220a84612aa7565b3373ffffffffffffffffffffffffffffffffffffffff167f3f026dfc901a644dfad5e469bdfe8c87e18a5a3547c31914aebac22a3d0459648486604051612252929190614668565b60405180910390a250505050565b6122686135d0565b600d6000838152602001908152602001600020604051806101200160405290816000820160009054906101000a900473ffffffffffffffffffffffffffffffffffffffff1673ffffffffffffffffffffffffffffffffffffffff1673ffffffffffffffffffffffffffffffffffffffff16815260200160018201548152602001600282015481526020016003820154815260200160048201548152602001600582015481526020016006820160009054906101000a900473ffffffffffffffffffffffffffffffffffffffff1673ffffffffffffffffffffffffffffffffffffffff1673ffffffffffffffffffffffffffffffffffffffff1681526020016006820160149054906101000a900460ff161515151581526020016006820160159054906101000a900460ff1615151515815250509050919050565b60007f80ac58cd000000000000000000000000000000000000000000000000000000007bffffffffffffffffffffffffffffffffffffffffffffffffffffffff1916827bffffffffffffffffffffffffffffffffffffffffffffffffffffffff1916148061246d57507f5b5e139f000000000000000000000000000000000000000000000000000000007bffffffffffffffffffffffffffffffffffffffffffffffffffffffff1916827bffffffffffffffffffffffffffffffffffffffffffffffffffffffff1916145b8061247d575061247c82612f88565b5b9050919050565b61248d81612590565b6124cc576040517f08c379a00000000000000000000000000000000000000000000000000000000081526004016124c390614508565b60405180910390fd5b50565b600033905090565b816004600083815260200190815260200160002060006101000a81548173ffffffffffffffffffffffffffffffffffffffff021916908373ffffffffffffffffffffffffffffffffffffffff160217905550808273ffffffffffffffffffffffffffffffffffffffff1661254a83610d6a565b73ffffffffffffffffffffffffffffffffffffffff167f8c5be1e5ebec7d5bd14f71427d1e84f3dd0314c0f7b2291e5b200ac8c7c3b92560405160405180910390a45050565b60008073ffffffffffffffffffffffffffffffffffffffff166002600084815260200190815260200160002060009054906101000a900473ffffffffffffffffffffffffffffffffffffffff1673ffffffffffffffffffffffffffffffffffffffff1614159050919050565b6000818361260a9190614b76565b905092915050565b600081836126209190614bff565b905092915050565b600081836126369190614c30565b905092915050565b60008061264a83610d6a565b90508073ffffffffffffffffffffffffffffffffffffffff168473ffffffffffffffffffffffffffffffffffffffff16148061268c575061268b81856114ae565b5b806126ca57508373ffffffffffffffffffffffffffffffffffffffff166126b28461059e565b73ffffffffffffffffffffffffffffffffffffffff16145b91505092915050565b8273ffffffffffffffffffffffffffffffffffffffff166126f382610d6a565b73ffffffffffffffffffffffffffffffffffffffff1614612749576040517f08c379a000000000000000000000000000000000000000000000000000000000815260040161274090614cf8565b60405180910390fd5b600073ffffffffffffffffffffffffffffffffffffffff168273ffffffffffffffffffffffffffffffffffffffff1614156127b9576040517f08c379a00000000000000000000000000000000000000000000000000000000081526004016127b090614d8a565b60405180910390fd5b6127c4838383612ff2565b6127cf6000826124d7565b6001600360008573ffffffffffffffffffffffffffffffffffffffff1673ffffffffffffffffffffffffffffffffffffffff168152602001908152602001600020600082825461281f9190614daa565b925050819055506001600360008473ffffffffffffffffffffffffffffffffffffffff1673ffffffffffffffffffffffffffffffffffffffff16815260200190815260200160002060008282546128769190614c30565b92505081905550816002600083815260200190815260200160002060006101000a81548173ffffffffffffffffffffffffffffffffffffffff021916908373ffffffffffffffffffffffffffffffffffffffff160217905550808273ffffffffffffffffffffffffffffffffffffffff168473ffffffffffffffffffffffffffffffffffffffff167fddf252ad1be2c89b69c2b068fc378daa952ba7f163c4a11628f55a4df523b3ef60405160405180910390a4612935838383613106565b505050565b8173ffffffffffffffffffffffffffffffffffffffff168373ffffffffffffffffffffffffffffffffffffffff1614156129a9576040517f08c379a00000000000000000000000000000000000000000000000000000000081526004016129a090614e2a565b60405180910390fd5b80600560008573ffffffffffffffffffffffffffffffffffffffff1673ffffffffffffffffffffffffffffffffffffffff16815260200190815260200160002060008473ffffffffffffffffffffffffffffffffffffffff1673ffffffffffffffffffffffffffffffffffffffff16815260200190815260200160002060006101000a81548160ff0219169083151502179055508173ffffffffffffffffffffffffffffffffffffffff168373ffffffffffffffffffffffffffffffffffffffff167f17307eab39ab6107e8899845ad3d59bd9653f200f220920489ca2b5937696c3183604051612a9a9190613700565b60405180910390a3505050565b6000612ab282610d6a565b9050612ac081600084612ff2565b612acb6000836124d7565b6001600360008373ffffffffffffffffffffffffffffffffffffffff1673ffffffffffffffffffffffffffffffffffffffff1681526020019081526020016000206000828254612b1b9190614daa565b925050819055506002600083815260200190815260200160002060006101000a81549073ffffffffffffffffffffffffffffffffffffffff021916905581600073ffffffffffffffffffffffffffffffffffffffff168273ffffffffffffffffffffffffffffffffffffffff167fddf252ad1be2c89b69c2b068fc378daa952ba7f163c4a11628f55a4df523b3ef60405160405180910390a4612bc081600084613106565b5050565b612bcf8484846126d3565b612bdb8484848461310b565b612c1a576040517f08c379a0000000000000000000000000000000000000000000000000000000008152600401612c1190614ebc565b60405180910390fd5b50505050565b606060405180602001604052806000815250905090565b60606000821415612c7f576040518060400160405280600181526020017f30000000000000000000000000000000000000000000000000000000000000008152509050612d93565b600082905060005b60008214612cb1578080612c9a90614a2f565b915050600a82612caa9190614bff565b9150612c87565b60008167ffffffffffffffff811115612ccd57612ccc613a21565b5b6040519080825280601f01601f191660200182016040528015612cff5781602001600182028036833780820191505090505b5090505b60008514612d8c57600182612d189190614daa565b9150600a85612d279190614edc565b6030612d339190614c30565b60f81b818381518110612d4957612d4861448d565b5b60200101907effffffffffffffffffffffffffffffffffffffffffffffffffffffffffffff1916908160001a905350600a85612d859190614bff565b9450612d03565b8093505050505b919050565b600073ffffffffffffffffffffffffffffffffffffffff168273ffffffffffffffffffffffffffffffffffffffff161415612e08576040517f08c379a0000000000000000000000000000000000000000000000000000000008152600401612dff90614f59565b60405180910390fd5b612e1181612590565b15612e51576040517f08c379a0000000000000000000000000000000000000000000000000000000008152600401612e4890614fc5565b60405180910390fd5b612e5d60008383612ff2565b6001600360008473ffffffffffffffffffffffffffffffffffffffff1673ffffffffffffffffffffffffffffffffffffffff1681526020019081526020016000206000828254612ead9190614c30565b92505081905550816002600083815260200190815260200160002060006101000a81548173ffffffffffffffffffffffffffffffffffffffff021916908373ffffffffffffffffffffffffffffffffffffffff160217905550808273ffffffffffffffffffffffffffffffffffffffff16600073ffffffffffffffffffffffffffffffffffffffff167fddf252ad1be2c89b69c2b068fc378daa952ba7f163c4a11628f55a4df523b3ef60405160405180910390a4612f6e60008383613106565b5050565b60008183612f809190614daa565b905092915050565b60007f01ffc9a7000000000000000000000000000000000000000000000000000000007bffffffffffffffffffffffffffffffffffffffffffffffffffffffff1916827bffffffffffffffffffffffffffffffffffffffffffffffffffffffff1916149050919050565b612ffd8383836132a2565b600073ffffffffffffffffffffffffffffffffffffffff168373ffffffffffffffffffffffffffffffffffffffff1614156130405761303b816132a7565b61307f565b8173ffffffffffffffffffffffffffffffffffffffff168373ffffffffffffffffffffffffffffffffffffffff161461307e5761307d83826132f0565b5b5b600073ffffffffffffffffffffffffffffffffffffffff168273ffffffffffffffffffffffffffffffffffffffff1614156130c2576130bd8161345d565b613101565b8273ffffffffffffffffffffffffffffffffffffffff168273ffffffffffffffffffffffffffffffffffffffff1614613100576130ff828261352e565b5b5b505050565b505050565b600061312c8473ffffffffffffffffffffffffffffffffffffffff166135ad565b15613295578373ffffffffffffffffffffffffffffffffffffffff1663150b7a026131556124cf565b8786866040518563ffffffff1660e01b8152600401613177949392919061503a565b602060405180830381600087803b15801561319157600080fd5b505af19250505080156131c257506040513d601f19601f820116820180604052508101906131bf919061509b565b60015b613245573d80600081146131f2576040519150601f19603f3d011682016040523d82523d6000602084013e6131f7565b606091505b5060008151141561323d576040517f08c379a000000000000000000000000000000000000000000000000000000000815260040161323490614ebc565b60405180910390fd5b805181602001fd5b63150b7a0260e01b7bffffffffffffffffffffffffffffffffffffffffffffffffffffffff1916817bffffffffffffffffffffffffffffffffffffffffffffffffffffffff19161491505061329a565b600190505b949350505050565b505050565b6008805490506009600083815260200190815260200160002081905550600881908060018154018082558091505060019003906000526020600020016000909190919091505550565b600060016132fd84610e1c565b6133079190614daa565b90506000600760008481526020019081526020016000205490508181146133ec576000600660008673ffffffffffffffffffffffffffffffffffffffff1673ffffffffffffffffffffffffffffffffffffffff168152602001908152602001600020600084815260200190815260200160002054905080600660008773ffffffffffffffffffffffffffffffffffffffff1673ffffffffffffffffffffffffffffffffffffffff168152602001908152602001600020600084815260200190815260200160002081905550816007600083815260200190815260200160002081905550505b6007600084815260200190815260200160002060009055600660008573ffffffffffffffffffffffffffffffffffffffff1673ffffffffffffffffffffffffffffffffffffffff16815260200190815260200160002060008381526020019081526020016000206000905550505050565b600060016008805490506134719190614daa565b90506000600960008481526020019081526020016000205490506000600883815481106134a1576134a061448d565b5b9060005260206000200154905080600883815481106134c3576134c261448d565b5b906000526020600020018190555081600960008381526020019081526020016000208190555060096000858152602001908152602001600020600090556008805480613512576135116150c8565b5b6001900381819060005260206000200160009055905550505050565b600061353983610e1c565b905081600660008573ffffffffffffffffffffffffffffffffffffffff1673ffffffffffffffffffffffffffffffffffffffff168152602001908152602001600020600083815260200190815260200160002081905550806007600084815260200190815260200160002081905550505050565b6000808273ffffffffffffffffffffffffffffffffffffffff163b119050919050565b604051806101200160405280600073ffffffffffffffffffffffffffffffffffffffff1681526020016000815260200160008152602001600081526020016000815260200160008152602001600073ffffffffffffffffffffffffffffffffffffffff1681526020016000151581526020016000151581525090565b6000604051905090565b600080fd5b600080fd5b60007fffffffff0000000000000000000000000000000000000000000000000000000082169050919050565b61369581613660565b81146136a057600080fd5b50565b6000813590506136b28161368c565b92915050565b6000602082840312156136ce576136cd613656565b5b60006136dc848285016136a3565b91505092915050565b60008115159050919050565b6136fa816136e5565b82525050565b600060208201905061371560008301846136f1565b92915050565b600081519050919050565b600082825260208201905092915050565b60005b8381101561375557808201518184015260208101905061373a565b83811115613764576000848401525b50505050565b6000601f19601f8301169050919050565b60006137868261371b565b6137908185613726565b93506137a0818560208601613737565b6137a98161376a565b840191505092915050565b600060208201905081810360008301526137ce818461377b565b905092915050565b6000819050919050565b6137e9816137d6565b81146137f457600080fd5b50565b600081359050613806816137e0565b92915050565b60006020828403121561382257613821613656565b5b6000613830848285016137f7565b91505092915050565b600073ffffffffffffffffffffffffffffffffffffffff82169050919050565b600061386482613839565b9050919050565b61387481613859565b82525050565b600060208201905061388f600083018461386b565b92915050565b61389e81613859565b81146138a957600080fd5b50565b6000813590506138bb81613895565b92915050565b600080604083850312156138d8576138d7613656565b5b60006138e6858286016138ac565b92505060206138f7858286016137f7565b9150509250929050565b61390a816137d6565b82525050565b60006020820190506139256000830184613901565b92915050565b60008060006060848603121561394457613943613656565b5b6000613952868287016138ac565b9350506020613963868287016138ac565b9250506040613974868287016137f7565b9150509250925092565b60006020828403121561399457613993613656565b5b60006139a2848285016138ac565b91505092915050565b6139b4816136e5565b81146139bf57600080fd5b50565b6000813590506139d1816139ab565b92915050565b600080604083850312156139ee576139ed613656565b5b60006139fc858286016138ac565b9250506020613a0d858286016139c2565b9150509250929050565b600080fd5b600080fd5b7f4e487b7100000000000000000000000000000000000000000000000000000000600052604160045260246000fd5b613a598261376a565b810181811067ffffffffffffffff82111715613a7857613a77613a21565b5b80604052505050565b6000613a8b61364c565b9050613a978282613a50565b919050565b600067ffffffffffffffff821115613ab757613ab6613a21565b5b613ac08261376a565b9050602081019050919050565b82818337600083830152505050565b6000613aef613aea84613a9c565b613a81565b905082815260208101848484011115613b0b57613b0a613a1c565b5b613b16848285613acd565b509392505050565b600082601f830112613b3357613b32613a17565b5b8135613b43848260208601613adc565b91505092915050565b60008060008060808587031215613b6657613b65613656565b5b6000613b74878288016138ac565b9450506020613b85878288016138ac565b9350506040613b96878288016137f7565b925050606085013567ffffffffffffffff811115613bb757613bb661365b565b5b613bc387828801613b1e565b91505092959194509250565b60008060408385031215613be657613be5613656565b5b6000613bf4858286016138ac565b9250506020613c05858286016138ac565b9150509250929050565b600080600080600060a08688031215613c2b57613c2a613656565b5b6000613c39888289016138ac565b9550506020613c4a888289016137f7565b9450506040613c5b888289016137f7565b9350506060613c6c888289016137f7565b9250506080613c7d888289016137f7565b9150509295509295909350565b60008060408385031215613ca157613ca0613656565b5b6000613caf858286016137f7565b9250506020613cc0858286016137f7565b9150509250929050565b600081519050919050565b600082825260208201905092915050565b6000819050602082019050919050565b613cff81613859565b82525050565b613d0e816137d6565b82525050565b613d1d816136e5565b82525050565b61012082016000820151613d3a6000850182613cf6565b506020820151613d4d6020850182613d05565b506040820151613d606040850182613d05565b506060820151613d736060850182613d05565b506080820151613d866080850182613d05565b5060a0820151613d9960a0850182613d05565b5060c0820151613dac60c0850182613cf6565b5060e0820151613dbf60e0850182613d14565b50610100820151613dd4610100850182613d14565b50505050565b6000613de68383613d23565b6101208301905092915050565b6000602082019050919050565b6000613e0b82613cca565b613e158185613cd5565b9350613e2083613ce6565b8060005b83811015613e51578151613e388882613dda565b9750613e4383613df3565b925050600181019050613e24565b5085935050505092915050565b60006020820190508181036000830152613e788184613e00565b905092915050565b61012082016000820151613e976000850182613cf6565b506020820151613eaa6020850182613d05565b506040820151613ebd6040850182613d05565b506060820151613ed06060850182613d05565b506080820151613ee36080850182613d05565b5060a0820151613ef660a0850182613d05565b5060c0820151613f0960c0850182613cf6565b5060e0820151613f1c60e0850182613d14565b50610100820151613f31610100850182613d14565b50505050565b600061012082019050613f4d6000830184613e80565b92915050565b7f4e487b7100000000000000000000000000000000000000000000000000000000600052602260045260246000fd5b60006002820490506001821680613f9a57607f821691505b60208210811415613fae57613fad613f53565b5b50919050565b7f4552433732313a20617070726f76616c20746f2063757272656e74206f776e6560008201527f7200000000000000000000000000000000000000000000000000000000000000602082015250565b6000614010602183613726565b915061401b82613fb4565b604082019050919050565b6000602082019050818103600083015261403f81614003565b9050919050565b7f4552433732313a20617070726f76652063616c6c6572206973206e6f7420746f60008201527f6b656e206f776e6572206e6f7220617070726f76656420666f7220616c6c0000602082015250565b60006140a2603e83613726565b91506140ad82614046565b604082019050919050565b600060208201905081810360008301526140d181614095565b9050919050565b7f746f6b656e20646f6573206e6f74206578697374000000000000000000000000600082015250565b600061410e601483613726565b9150614119826140d8565b602082019050919050565b6000602082019050818103600083015261413d81614101565b9050919050565b7f43616e6e6f7420626f72726f7720746f20796f757273656c6600000000000000600082015250565b600061417a601983613726565b915061418582614144565b602082019050919050565b600060208201905081810360008301526141a98161416d565b9050919050565b6000815190506141bf816137e0565b92915050565b6000602082840312156141db576141da613656565b5b60006141e9848285016141b0565b91505092915050565b7f496e73756666696369656e742066756e64730000000000000000000000000000600082015250565b6000614228601283613726565b9150614233826141f2565b602082019050919050565b600060208201905081810360008301526142578161421b565b9050919050565b6000606082019050614273600083018661386b565b614280602083018561386b565b61428d6040830184613901565b949350505050565b6000815190506142a4816139ab565b92915050565b6000602082840312156142c0576142bf613656565b5b60006142ce84828501614295565b91505092915050565b7f4552433732313a2063616c6c6572206973206e6f7420746f6b656e206f776e6560008201527f72206e6f7220617070726f766564000000000000000000000000000000000000602082015250565b6000614333602e83613726565b915061433e826142d7565b604082019050919050565b6000602082019050818103600083015261436281614326565b9050919050565b7f455243373231456e756d657261626c653a206f776e657220696e646578206f7560008201527f74206f6620626f756e6473000000000000000000000000000000000000000000602082015250565b60006143c5602b83613726565b91506143d082614369565b604082019050919050565b600060208201905081810360008301526143f4816143b8565b9050919050565b7f455243373231456e756d657261626c653a20676c6f62616c20696e646578206f60008201527f7574206f6620626f756e64730000000000000000000000000000000000000000602082015250565b6000614457602c83613726565b9150614462826143fb565b604082019050919050565b600060208201905081810360008301526144868161444a565b9050919050565b7f4e487b7100000000000000000000000000000000000000000000000000000000600052603260045260246000fd5b7f4552433732313a20696e76616c696420746f6b656e2049440000000000000000600082015250565b60006144f2601883613726565b91506144fd826144bc565b602082019050919050565b60006020820190508181036000830152614521816144e5565b9050919050565b7f4552433732313a2061646472657373207a65726f206973206e6f74206120766160008201527f6c6964206f776e65720000000000000000000000000000000000000000000000602082015250565b6000614584602983613726565b915061458f82614528565b604082019050919050565b600060208201905081810360008301526145b381614577565b9050919050565b6000815190506145c981613895565b92915050565b6000602082840312156145e5576145e4613656565b5b60006145f3848285016145ba565b91505092915050565b7f596f7520646f206e6f74206f776e20746865204e465400000000000000000000600082015250565b6000614632601683613726565b915061463d826145fc565b602082019050919050565b6000602082019050818103600083015261466181614625565b9050919050565b600060408201905061467d600083018561386b565b61468a6020830184613901565b9392505050565b600081905092915050565b60006146a78261371b565b6146b18185614691565b93506146c1818560208601613737565b80840191505092915050565b60006146d9828561469c565b91506146e5828461469c565b91508190509392505050565b7f45524352656e7461626c6532303a20746f6b656e20616464726573732073686f60008201527f756c64206e6f7420626520746865207a65726f20616464726573730000000000602082015250565b600061474d603b83613726565b9150614758826146f1565b604082019050919050565b6000602082019050818103600083015261477c81614740565b9050919050565b7f52656e7461626c653a206665652063616e6e6f74206265207a65726f00000000600082015250565b60006147b9601c83613726565b91506147c482614783565b602082019050919050565b600060208201905081810360008301526147e8816147ac565b9050919050565b7f72656e7461626c653a206465706f7369742063616e6e6f74206265207a65726f600082015250565b6000614825602083613726565b9150614830826147ef565b602082019050919050565b6000602082019050818103600083015261485481614818565b9050919050565b7f6475726174696f6e2063616e6e6f74206265207a65726f000000000000000000600082015250565b6000614891601783613726565b915061489c8261485b565b602082019050919050565b600060208201905081810360008301526148c081614884565b9050919050565b7f596f7520646f206e6f74206f776e2074686520746f6b656e0000000000000000600082015250565b60006148fd601883613726565b9150614908826148c7565b602082019050919050565b6000602082019050818103600083015261492c816148f0565b9050919050565b600060c082019050614948600083018961386b565b6149556020830188613901565b6149626040830187613901565b61496f6060830186613901565b61497c6080830185613901565b61498960a0830184613901565b979650505050505050565b7f496e76616c696400000000000000000000000000000000000000000000000000600082015250565b60006149ca600783613726565b91506149d582614994565b602082019050919050565b600060208201905081810360008301526149f9816149bd565b9050919050565b7f4e487b7100000000000000000000000000000000000000000000000000000000600052601160045260246000fd5b6000614a3a826137d6565b91507fffffffffffffffffffffffffffffffffffffffffffffffffffffffffffffffff821415614a6d57614a6c614a00565b5b600182019050919050565b7f546f6b656e206e6f742072656e746564206f72206f7264657220636f6d706c6560008201527f7465000000000000000000000000000000000000000000000000000000000000602082015250565b6000614ad4602283613726565b9150614adf82614a78565b604082019050919050565b60006020820190508181036000830152614b0381614ac7565b9050919050565b7f4e6f7420726561647920746f206c697175696461746500000000000000000000600082015250565b6000614b40601683613726565b9150614b4b82614b0a565b602082019050919050565b60006020820190508181036000830152614b6f81614b33565b9050919050565b6000614b81826137d6565b9150614b8c836137d6565b9250817fffffffffffffffffffffffffffffffffffffffffffffffffffffffffffffffff0483118215151615614bc557614bc4614a00565b5b828202905092915050565b7f4e487b7100000000000000000000000000000000000000000000000000000000600052601260045260246000fd5b6000614c0a826137d6565b9150614c15836137d6565b925082614c2557614c24614bd0565b5b828204905092915050565b6000614c3b826137d6565b9150614c46836137d6565b9250827fffffffffffffffffffffffffffffffffffffffffffffffffffffffffffffffff03821115614c7b57614c7a614a00565b5b828201905092915050565b7f4552433732313a207472616e736665722066726f6d20696e636f72726563742060008201527f6f776e6572000000000000000000000000000000000000000000000000000000602082015250565b6000614ce2602583613726565b9150614ced82614c86565b604082019050919050565b60006020820190508181036000830152614d1181614cd5565b9050919050565b7f4552433732313a207472616e7366657220746f20746865207a65726f2061646460008201527f7265737300000000000000000000000000000000000000000000000000000000602082015250565b6000614d74602483613726565b9150614d7f82614d18565b604082019050919050565b60006020820190508181036000830152614da381614d67565b9050919050565b6000614db5826137d6565b9150614dc0836137d6565b925082821015614dd357614dd2614a00565b5b828203905092915050565b7f4552433732313a20617070726f766520746f2063616c6c657200000000000000600082015250565b6000614e14601983613726565b9150614e1f82614dde565b602082019050919050565b60006020820190508181036000830152614e4381614e07565b9050919050565b7f4552433732313a207472616e7366657220746f206e6f6e20455243373231526560008201527f63656976657220696d706c656d656e7465720000000000000000000000000000602082015250565b6000614ea6603283613726565b9150614eb182614e4a565b604082019050919050565b60006020820190508181036000830152614ed581614e99565b9050919050565b6000614ee7826137d6565b9150614ef2836137d6565b925082614f0257614f01614bd0565b5b828206905092915050565b7f4552433732313a206d696e7420746f20746865207a65726f2061646472657373600082015250565b6000614f43602083613726565b9150614f4e82614f0d565b602082019050919050565b60006020820190508181036000830152614f7281614f36565b9050919050565b7f4552433732313a20746f6b656e20616c7265616479206d696e74656400000000600082015250565b6000614faf601c83613726565b9150614fba82614f79565b602082019050919050565b60006020820190508181036000830152614fde81614fa2565b9050919050565b600081519050919050565b600082825260208201905092915050565b600061500c82614fe5565b6150168185614ff0565b9350615026818560208601613737565b61502f8161376a565b840191505092915050565b600060808201905061504f600083018761386b565b61505c602083018661386b565b6150696040830185613901565b818103606083015261507b8184615001565b905095945050505050565b6000815190506150958161368c565b92915050565b6000602082840312156150b1576150b0613656565b5b60006150bf84828501615086565b91505092915050565b7f4e487b7100000000000000000000000000000000000000000000000000000000600052603160045260246000fdfea2646970667358221220834ff78632d118241a9f132a979458e3b010f064b517723ef974efccd718a1af64736f6c63430008090033",
  "linkReferences": {},
  "deployedLinkReferences": {}
}